S014000068656C6C6F776F726C646370702E73313961
S20500000013E7
S20500000100F9
S20500000200F8
S20500000300F7
S20500000413E3
S20500000500F5
S20500000600F4
S20500000700F3
S20500000813DF
S20500000900F1
S20500000A00F0
S20500000B00EF
S20500000C13DB
S20500000D00ED
S20500000E00EC
S20500000F00EB
S20500001013D7
S20500001100E9
S20500001200E8
S20500001300E7
S20500001413D3
S20500001500E5
S20500001600E4
S20500001700E3
S20500001813CF
S20500001900E1
S20500001A00E0
S20500001B00DF
S20500001C13CB
S20500001D00DD
S20500001E00DC
S20500001F00DB
S20500002013C7
S20500002100D9
S20500002200D8
S20500002300D7
S20500002413C3
S20500002500D5
S20500002600D4
S20500002700D3
S20500002813BF
S20500002900D1
S20500002A00D0
S20500002B00CF
S20500002C13BB
S20500002D00CD
S20500002E00CC
S20500002F00CB
S20500003013B7
S20500003100C9
S20500003200C8
S20500003300C7
S20500003413B3
S20500003500C5
S20500003600C4
S20500003700C3
S20500003813AF
S20500003900C1
S20500003A00C0
S20500003B00BF
S20500003C13AB
S20500003D00BD
S20500003E00BC
S20500003F00BB
S20500004013A7
S20500004100B9
S20500004200B8
S20500004300B7
S20500004413A3
S20500004500B5
S20500004600B4
S20500004700B3
S205000048139F
S20500004900B1
S20500004A00B0
S20500004B00AF
S20500004C139B
S20500004D00AD
S20500004E00AC
S20500004F00AB
S2050000501397
S20500005100A9
S20500005200A8
S20500005300A7
S2050000541393
S20500005500A5
S20500005600A4
S20500005700A3
S205000058138F
S20500005900A1
S20500005A00A0
S20500005B009F
S20500005C6F2F
S20500005D009D
S20500005E801C
S20500005F0F8C
S2050000606F2B
S2050000610099
S205000062C0D8
S2050000631087
S2050000646F27
S2050000650095
S2050000660094
S2050000671281
S2050000686F23
S2050000690091
S20500006A4050
S20500006B137C
S20500006C6F1F
S20500006D008D
S20500006E800C
S20500006F1477
S2050000706F1B
S2050000710089
S2050000724048
S2050000731770
S2050000746F17
S2050000750085
S2050000768004
S205000077156E
S2050000786F13
S2050000790081
S20500007AC0C0
S20500007B1966
S20500007C6F0F
S20500007D007D
S20500007E007C
S20500007F1863
S2050000806F0B
S2050000810079
S205000082C0B8
S2050000830077
S2050000846F07
S2050000850075
S20500008680F4
S2050000871A59
S2050000886F03
S2050000890071
S20500008A4030
S20500008B1A55
S20500008C93DB
S20500008D006D
S20500008E006C
S20500008F006B
S2050000901357
S20500009181E8
S2050000920068
S2050000930067
S20500009493D3
S20500009581E4
S2050000960064
S2050000970063
S205000098134F
S20500009982DF
S20500009A0060
S20500009B005F
S20500009C93CB
S20500009D82DB
S20500009E005C
S20500009F005B
S2050000A01347
S2050000A183D6
S2050000A20058
S2050000A30057
S2050000A493C3
S2050000A583D2
S2050000A60054
S2050000A70053
S2050000A8133F
S2050000A984CD
S2050000AA0050
S2050000AB004F
S2050000AC93BB
S2050000AD84C9
S2050000AE004C
S2050000AF004B
S2050000B01337
S2050000B185C4
S2050000B20048
S2050000B30047
S2050000B493B3
S2050000B585C0
S2050000B60044
S2050000B70043
S2050000B8132F
S2050000B986BB
S2050000BA0040
S2050000BB003F
S2050000BC93AB
S2050000BD86B7
S2050000BE003C
S2050000BF003B
S2050000C01327
S2050000C187B2
S2050000C20038
S2050000C30037
S2050000C493A3
S2050000C587AE
S2050000C60034
S2050000C70033
S2050000C8131F
S2050000C988A9
S2050000CA0030
S2050000CB002F
S2050000CC939B
S2050000CD88A5
S2050000CE002C
S2050000CF002B
S2050000D01317
S2050000D189A0
S2050000D20028
S2050000D30027
S2050000D49393
S2050000D5899C
S2050000D60024
S2050000D70023
S2050000D8130F
S2050000D98A97
S2050000DA0020
S2050000DB001F
S2050000DC938B
S2050000DD8A93
S2050000DE001C
S2050000DF001B
S2050000E01307
S2050000E18B8E
S2050000E20018
S2050000E30017
S2050000E49383
S2050000E58B8A
S2050000E60014
S2050000E70013
S2050000E813FF
S2050000E98C85
S2050000EA0010
S2050000EB000F
S2050000EC937B
S2050000ED8C81
S2050000EE000C
S2050000EF000B
S2050000F013F7
S2050000F18D7C
S2050000F20008
S2050000F30007
S2050000F49373
S2050000F58D78
S2050000F60004
S2050000F70003
S2050000F813EF
S2050000F98E73
S2050000FA0000
S2050000FB00FF
S2050000FC936B
S2050000FD8E6F
S2050000FE00FC
S2050000FF00FB
S20500010013E6
S2050001018F69
S20500010200F7
S20500010300F6
S2050001049362
S2050001058F65
S20500010600F3
S20500010700F2
S20500010817DA
S205000109816F
S20500010A10DF
S20500010B00EE
S20500010C13DA
S20500010D01EB
S20500010E816A
S20500010FEFFB
S20500011017D2
S2050001110DDB
S20500011210D7
S20500011300E6
S20500011413D2
S2050001150DD7
S2050001160DD6
S2050001173CA6
S205000118974A
S2050001190DD3
S20500011A10CF
S20500011B00DE
S20500011C934A
S20500011D8D4F
S20500011E0DCE
S20500011F4397
S2050001206376
S2050001215880
S205000122BD1A
S20500012301D5
S20500012423B2
S20500012520B4
S2050001260DC6
S20500012700D2
S20500012813BE
S2050001290DC3
S20500012A4D82
S20500012B00CE
S20500012CE3EA
S20500012DDCF0
S20500012EAD1E
S20500012FFFCB
S205000130EFDA
S20500013100C8
S20500013200C7
S20500013321A5
S20500013413B2
S20500013505BF
S20500013600C3
S20500013700C2
S205000138932E
S20500013905BB
S20500013A10AF
S20500013B00BE
S20500013CEFCE
S20500013D10AC
S20500013EC0FB
S20500013F4476
S20500014013A6
S20500014105B3
S20500014200B7
S20500014300B6
S2050001449322
S20500014505AF
S20500014600B3
S20500014700B2
S205000148EFC2
S20500014900B0
S20500014A802F
S20500014B2A84
S20500014CEFBE
S20500014D109C
S20500014E802B
S20500014F4B5F
S205000150EFBA
S2050001511098
S20500015200A7
S2050001535353
S2050001541392
S20500015501A3
S20500015601A2
S205000157FAA8
S205000158237E
S2050001592E72
S20500015A118E
S20500015B049A
S20500015CEFAE
S20500015D009C
S20500015E801B
S20500015F0E8C
S2050001609702
S2050001610098
S2050001620097
S2050001630096
S2050001649302
S2050001658014
S205000166C0D3
S205000167157D
S2050001686F22
S2050001690090
S20500016AC0CF
S20500016B2A64
S20500016C137A
S20500016D018B
S20500016E018A
S20500016FFA90
S2050001702366
S2050001712E5A
S2050001721176
S2050001730482
S205000174EF96
S2050001750084
S2050001760083
S2050001770D75
S20500017897EA
S2050001790080
S20500017A007F
S20500017B007E
S20500017C93EA
S20500017D80FC
S20500017E403B
S20500017F1466
S2050001806F0A
S2050001811068
S2050001824037
S2050001833F37
S2050001841362
S2050001850173
S2050001860172
S205000187FA78
S205000188234E
S2050001892E42
S20500018A115E
S20500018B046A
S20500018CEF7E
S20500018D006C
S20500018E80EB
S20500018F0B5F
S20500019097D2
S2050001910068
S2050001920067
S2050001930066
S20500019493D2
S20500019580E4
S205000196C0A3
S2050001971250
S2050001986FF2
S2050001990060
S20500019A401F
S20500019B4D11
S20500019C134A
S20500019D015B
S20500019E015A
S20500019FFA60
S2050001A02336
S2050001A12E2A
S2050001A21146
S2050001A30452
S2050001A4EF66
S2050001A50054
S2050001A60053
S2050001A70A48
S2050001A897BA
S2050001A90050
S2050001AA004F
S2050001AB004E
S2050001AC93BA
S2050001AD80CC
S2050001AE400B
S2050001AF1139
S2050001B06FDA
S2050001B11038
S2050001B280C7
S2050001B33C0A
S2050001B41332
S2050001B50143
S2050001B60142
S2050001B7FA48
S2050001B8231E
S2050001B92E12
S2050001BA112E
S2050001BB043A
S2050001BCEF4E
S2050001BD003C
S2050001BE80BB
S2050001BF0832
S2050001C097A2
S2050001C10038
S2050001C20037
S2050001C30036
S2050001C493A2
S2050001C580B4
S2050001C6C073
S2050001C70F23
S2050001C86FC2
S2050001C91020
S2050001CA40EF
S2050001CB3BF3
S2050001CC131A
S2050001CD012B
S2050001CE012A
S2050001CFFA30
S2050001D02306
S2050001D12EFA
S2050001D21116
S2050001D30422
S2050001D4EF36
S2050001D50024
S2050001D60023
S2050001D7071B
S2050001D8978A
S2050001D90020
S2050001DA001F
S2050001DB001E
S2050001DC938A
S2050001DD809C
S2050001DE40DB
S2050001DF0E0C
S2050001E06FAA
S2050001E10018
S2050001E20017
S2050001E350C6
S2050001E41302
S2050001E50113
S2050001E60112
S2050001E7FA18
S2050001E823EE
S2050001E92EE2
S2050001EA11FE
S2050001EB040A
S2050001ECEF1E
S2050001ED000C
S2050001EE808B
S2050001EF0505
S2050001F09772
S2050001F10008
S2050001F20007
S2050001F30006
S2050001F49372
S2050001F58084
S2050001F6C043
S2050001F70CF6
S2050001F86F92
S2050001F910F0
S2050001FA807F
S2050001FB38C6
S2050001FC13EA
S2050001FD01FB
S2050001FE01FA
S2050001FFFA00
S20500020023D5
S2050002012EC9
S20500020211E5
S20500020304F1
S205000204EF05
S20500020500F3
S20500020600F2
S20500020704ED
S2050002089759
S20500020900EF
S20500020A00EE
S20500020B00ED
S20500020C9359
S20500020D806B
S20500020E40AA
S20500020F0BDE
S2050002106F79
S20500021100E7
S2050002128066
S2050002135392
S20500021413D1
S20500021501E2
S20500021601E1
S205000217FAE7
S20500021823BD
S2050002192EB1
S20500021A11CD
S20500021B04D9
S20500021CEFED
S20500021D00DB
S20500021E805A
S20500021F02D7
S2050002209741
S20500022100D7
S20500022200D6
S20500022300D5
S2050002249341
S2050002258053
S205000226C012
S20500022709C8
S2050002286F61
S20500022910BF
S20500022AC00E
S20500022B3598
S20500022C13B9
S20500022D01CA
S20500022E01C9
S20500022FFACF
S20500023023A5
S2050002312E99
S20500023211B5
S20500023304C1
S205000234EFD5
S20500023500C3
S20500023600C2
S20500023701C0
S2050002389729
S20500023900BF
S20500023A00BE
S20500023B00BD
S20500023C9329
S20500023D803B
S20500023E407A
S20500023F08B1
S2050002406F49
S20500024100B7
S2050002428036
S2050002435E57
S2050002442391
S2050002452093
S2050002463181
S20500024700B1
S205000248238D
S205000249228D
S20500024A416D
S20500024B00AD
S20500024C2389
S20500024D2487
S20500024E5159
S20500024F00A9
S2050002502385
S2050002512681
S2050002526145
S20500025300A5
S2050002542381
S205000255287B
S2050002567131
S20500025700A1
S205000258237D
S2050002592A75
S20500025AA1FD
S20500025B009D
S20500025C2379
S20500025D2C6F
S20500025EB1E9
S20500025F0099
S2050002602375
S2050002612E69
S205000262C1D5
S2050002630095
S2050002642371
S2050002652073
S205000266D1C1
S205000267028F
S205000268236D
S205000269226D
S20500026AE1AD
S20500026B028B
S20500026C2369
S20500026D2467
S20500026EF199
S20500026F0287
S2050002702365
S2050002712661
S2050002720185
S2050002730382
S2050002742361
S205000275285B
S2050002761171
S205000277037E
S205000278235D
S2050002792A55
S20500027AC1BD
S20500027B037A
S20500027C2359
S20500027D2C4F
S20500027ED1A9
S20500027F0376
S2050002802355
S2050002812E49
S205000282E195
S2050002830372
S2050002842351
S2050002852053
S205000286F181
S205000287056C
S20500028873FD
S2050002892E41
S20500028A006E
S20500028B7BF2
S20500028CF379
S20500028D2E3D
S20500028E105A
S20500028F7BEE
S20500029073F5
S2050002912F38
S2050002922046
S2050002937BEA
S2050002942341
S2050002952241
S205000296C1A1
S205000297055C
S205000298233D
S205000299243B
S20500029AD18D
S20500029B0558
S20500029C2339
S20500029D2635
S20500029EE179
S20500029F0554
S2050002A073E5
S2050002A12E29
S2050002A24016
S2050002A37BDA
S2050002A4F361
S2050002A52E25
S2050002A65002
S2050002A77BD6
S2050002A873DD
S2050002A92F20
S2050002AA60EE
S2050002AB7BD2
S2050002AC2329
S2050002AD2823
S2050002AEC189
S2050002AF0544
S2050002B02325
S2050002B12A1D
S2050002B2D175
S2050002B30540
S2050002B42321
S2050002B52C17
S2050002B6E161
S2050002B7053C
S2050002B867D9
S2050002B980BF
S2050002BA003E
S2050002BB003D
S2050002BC0339
S2050002BD2E0D
S2050002BE0139
S2050002BF0534
S2050002C083B5
S2050002C12E09
S2050002C241F5
S2050002C30530
S2050002C40331
S2050002C52F04
S2050002C681B1
S2050002C7052C
S2050002C873BD
S2050002C9101F
S2050002CA4EE0
S2050002CB7BB2
S2050002CC73B9
S2050002CD909B
S2050002CE5ECC
S2050002CF7BAE
S2050002D073B5
S2050002D11017
S2050002D26FB7
S2050002D37BAA
S2050002D40321
S2050002D52EF5
S2050002D641E1
S2050002D7041D
S2050002D8839D
S2050002D92EF1
S2050002DA819D
S2050002DB0419
S2050002DC0319
S2050002DD2FEC
S2050002DEC159
S2050002DF0415
S2050002E073A5
S2050002E11007
S2050002E20E08
S2050002E37B9A
S2050002E473A1
S2050002E59083
S2050002E61EF4
S2050002E77B96
S2050002E8739D
S2050002E910FF
S2050002EA2FDF
S2050002EB7B92
S2050002EC8389
S2050002ED21EA
S2050002EE0109
S2050002EF0009
S2050002F00305
S2050002F122E5
S2050002F241C5
S2050002F30005
S2050002F48381
S2050002F522E1
S2050002F68181
S2050002F70001
S2050002F803FD
S2050002F923DC
S2050002FAC13D
S2050002FB00FD
S2050002FC8379
S2050002FD23D8
S2050002FE01F9
S2050002FF01F8
S20500030003F4
S20500030125D1
S20500030241B4
S20500030301F3
S2050003048370
S20500030525CD
S2050003068170
S20500030701EF
S20500030803EC
S20500030926C8
S20500030AC12C
S20500030B01EB
S20500030C8368
S20500030D26C4
S20500030E01E8
S20500030F02E6
S20500031003E4
S20500031127BF
S20500031241A4
S20500031302E2
S2050003148360
S20500031527BB
S2050003168160
S20500031702DE
S20500031803DC
S20500031928B6
S20500031AC11C
S20500031B02DA
S20500031C8358
S20500031D28B2
S20500031E01D8
S20500031F03D5
S20500032003D4
S2050003212EA8
S2050003224194
S20500032303D1
S2050003248350
S2050003252EA4
S2050003268150
S20500032703CD
S20500032803CC
S2050003292F9F
S20500032AC10C
S20500032B03C9
S20500032C8348
S20500032D2F9B
S20500032E01C8
S20500032F04C4
S2050003308344
S20500033120A6
S205000332C104
S20500033305BF
S20500033413B0
S20500033501C1
S20500033601C0
S20500033706BA
S205000338734C
S20500033900BE
S20500033A00BD
S20500033B10AC
S20500033C6754
S20500033D803A
S20500033E00B9
S20500033F00B8
S20500034013A4
S20500034101B5
S20500034201B4
S205000343FFB5
S2050003442390
S205000345248E
S2050003468130
S20500034700B0
S205000348B7F8
S20500034907A7
S20500034A109D
S20500034B00AC
S20500034C3774
S20500034D04A6
S20500034E1099
S20500034F00A8
S2050003502384
S2050003512086
S2050003522184
S20500035301A3
S2050003549310
S205000355871B
S205000356079A
S20500035700A0
S205000358138C
S2050003590995
S20500035A0499
S20500035B009C
S20500035C3368
S20500035D8911
S20500035E2772
S20500035F4157
S2050003601384
S205000361593D
S205000362296C
S2050003634054
S2050003642370
S2050003652270
S2050003669100
S2050003670090
S205000368236C
S2050003692668
S20500036A117C
S20500036B008C
S20500036C1378
S20500036D0486
S20500036E0485
S20500036F0088
S20500037093F4
S2050003710482
S2050003720085
S2050003730084
S2050003746320
S2050003750C76
S2050003760978
S2050003770080
S20500037883FC
S2050003792757
S20500037A0479
S20500037B007C
S20500037C93E8
S20500037D84F6
S20500037E1465
S20500037F0078
S205000380E790
S20500038180F6
S205000382076E
S2050003830074
S2050003841360
S205000385046E
S205000386442D
S2050003870070
S205000388E38C
S2050003891856
S20500038A99D4
S20500038BFE6E
S20500038C3734
S20500038D0466
S20500038E1059
S20500038F0068
S205000390EF78
S205000391F076
S205000392DF86
S205000393FA6A
S205000394B7AC
S205000395075B
S2050003961051
S2050003970060
S205000398134C
S2050003990955
S20500039A0459
S20500039B005C
S20500039C93C8
S20500039D87D3
S20500039E0752
S20500039F0058
S2050003A03324
S2050003A189CD
S2050003A2272E
S2050003A34113
S2050003A41340
S2050003A559F9
S2050003A62928
S2050003A74010
S2050003A8133C
S2050003A9044A
S2050003AA0449
S2050003AB004C
S2050003AC93B8
S2050003AD0446
S2050003AE0049
S2050003AF0048
S2050003B063E4
S2050003B10C3A
S2050003B2093C
S2050003B30044
S2050003B483C0
S2050003B5271B
S2050003B6043D
S2050003B70040
S2050003B893AC
S2050003B984BA
S2050003BA1429
S2050003BB003C
S2050003BCE754
S2050003BD80BA
S2050003BE0732
S2050003BF0038
S2050003C01324
S2050003C10432
S2050003C244F1
S2050003C30034
S2050003C4E350
S2050003C5181A
S2050003C69998
S2050003C7FE32
S2050003C883AC
S2050003C9200E
S2050003CAC16C
S2050003CB002C
S2050003CC0328
S2050003CD2406
S2050003CE81A8
S2050003CF0028
S2050003D083A4
S2050003D12402
S2050003D241E4
S2050003D30024
S2050003D40320
S2050003D529F9
S2050003D60120
S2050003D70020
S2050003D8130C
S2050003D9011D
S2050003DA011C
S2050003DB011B
S2050003DC67B4
S2050003DD809A
S2050003DE0019
S2050003DF0018
S2050003E00017
S2050003E10016
S2050003E20015
S2050003E30014
S2050003E40013
S2050003E50012
S2050003E60011
S2050003E70010
S2050003E8000F
S2050003E9000E
S2050003EA000D
S2050003EB000C
S2050003EC000B
S2050003ED000A
S2050003EE0009
S2050003EF0008
S2050003F037D0
S2050003F10501
S2050003F210F5
S2050003F30004
S2050003F413F0
S2050003F50101
S2050003F60100
S2050003F7FF01
S2050003F813EC
S2050003F905F9
S2050003FA05F8
S2050003FB00FC
S2050003FC23D8
S2050003FD26D4
S2050003FE11E8
S2050003FF00F8
S205000400EF07
S20500040110E5
S20500040200F4
S20500040300F3
S205000404836F
S20500040520D1
S205000406C12F
S20500040700EF
S20500040813DB
S20500040905E8
S20500040A00EC
S20500040B00EB
S20500040C13D7
S20500040D01E8
S20500040E01E7
S20500040F01E6
S205000410677F
S2050004118065
S20500041200E4
S20500041300E3
S20500041437AB
S205000415578A
S20500041610D0
S2050004171AC5
S205000418835B
S20500041927B6
S20500041AC715
S20500041B00DB
S20500041C9347
S20500041DF6E3
S20500041E07D1
S20500041F02D5
S2050004206373
S2050004219045
S20500042206CE
S20500042312C1
S205000424933F
S205000425F7DA
S20500042607C9
S20500042708C7
S205000428636B
S205000429824B
S20500042A07C5
S20500042B06C5
S20500042CB713
S20500042D07C2
S20500042E10B8
S20500042F00C7
S20500043013B3
S205000431863F
S205000432576D
S2050004334F74
S205000434833F
S205000435477A
S20500043606BA
S20500043700BF
S205000438932B
S205000439F7C6
S20500043AF7C5
S20500043B0FAC
S20500043C6357
S20500043DAC0D
S20500043E2791
S20500043F16A1
S205000440B7FF
S205000441575E
S20500044210A4
S2050004431A99
S205000444139F
S205000445872A
S2050004464769
S20500044701AE
S205000448931B
S20500044906A7
S20500044A00AC
S20500044B04A7
S20500044C2387
S20500044D2089
S20500044ED7D1
S20500044F00A7
S2050004509313
S205000451871E
S205000452475D
S20500045300A3
S205000454138F
S205000455079A
S20500045600A0
S2050004570897
S205000458237B
S205000459A0FD
S20500045AE7B5
S20500045B009B
S20500045C2377
S20500045D0099
S20500045E0692
S20500045F0097
S205000460B7DF
S205000461573E
S2050004621084
S2050004631A79
S20500046493FF
S205000465870A
S2050004664749
S205000467018E
S205000468038B
S205000469A7E6
S20500046A0785
S20500046B008B
S20500046C3357
S20500046D4742
S20500046E0781
S20500046FC0C7
S2050004702363
S205000471A0E5
S205000472E79D
S2050004730083
S205000474B7CB
S205000475473A
S2050004761070
S2050004771A65
S20500047893EB
S20500047987F6
S20500047AC7B5
S20500047B007B
S20500047C0377
S20500047DA7D2
S20500047E0771
S20500047F0077
S2050004803343
S205000481472E
S20500048277FD
S205000483C1B2
S205000484234F
S205000485A0D1
S205000486E789
S205000487006F
S2050004886707
S20500048980ED
S20500048A006C
S20500048B006B
S20500048CB7B3
S20500048D0762
S20500048E1058
S20500048F0067
S2050004901353
S20500049186DF
S205000492570D
S2050004934F14
S20500049483DF
S205000495461B
S205000496065A
S205000497005F
S20500049893CB
S205000499F667
S20500049AF666
S20500049B0F4C
S20500049C63F7
S20500049DA4B5
S20500049E2632
S20500049F0C4B
S2050004A083D3
S2050004A1460F
S2050004A2064E
S2050004A30053
S2050004A493BF
S2050004A5F65B
S2050004A6F65A
S2050004A70F40
S2050004A8E36B
S2050004A9BC91
S2050004AA1636
S2050004ABFA51
S2050004ACB793
S2050004AD0742
S2050004AE1038
S2050004AF0047
S2050004B093B3
S2050004B187BE
S2050004B2172D
S2050004B34FF4
S2050004B483BF
S2050004B5C67B
S2050004B60739
S2050004B7003F
S2050004B893AB
S2050004B9F647
S2050004BAF646
S2050004BB0F2C
S2050004BC63D7
S2050004BD94A5
S2050004BE0632
S2050004BF1225
S2050004C0B77F
S2050004C1072E
S2050004C21024
S2050004C30033
S2050004C4939F
S2050004C587AA
S2050004C62709
S2050004C74FE0
S2050004C883AB
S2050004C9C667
S2050004CA0725
S2050004CB002B
S2050004CC9397
S2050004CDF633
S2050004CEF632
S2050004CF0F18
S2050004D09393
S2050004D185A0
S2050004D2160E
S2050004D30023
S2050004D4938F
S2050004D5F52C
S2050004D6F52B
S2050004D70F10
S2050004D823FB
S2050004D9809D
S2050004DAB765
S2050004DB001B
S2050004DCB763
S2050004DD0514
S2050004DE1008
S2050004DF0017
S2050004E00313
S2050004E127EE
S2050004E2878D
S2050004E30013
S2050004E4937F
S2050004E5858C
S2050004E6050B
S2050004E74DC2
S2050004E8A36B
S2050004E9C647
S2050004EAE527
S2050004EB000B
S2050004EC0307
S2050004EDC742
S2050004EE0701
S2050004EF0007
S2050004F0B74F
S2050004F107FE
S2050004F210F4
S2050004F30003
S2050004F4837F
S2050004F5C73A
S2050004F66799
S2050004F74FB0
S2050004F813EB
S2050004F97786
S2050004FAF705
S2050004FB0FEC
S2050004FC9367
S2050004FDF702
S2050004FEF701
S2050004FF0FE8
S2050005006392
S2050005016C88
S205000502F7FC
S20500050314DE
S205000504B73A
S20500050507E9
S20500050610DF
S20500050700EE
S205000508836A
S205000509C725
S20500050A07E4
S20500050B4F9B
S20500050C9356
S20500050DF7F1
S20500050EF7F0
S20500050F0FD7
S205000510E302
S205000511984C
S20500051207DC
S205000513F2F0
S205000514B72A
S2050005155789
S20500051610CF
S2050005171AC4
S205000518934A
S2050005198656
S20500051A4794
S20500051B00DA
S20500051C13C6
S20500051D07D1
S20500051E00D7
S20500051F08CE
S2050005209342
S205000521874D
S205000522478C
S20500052301D1
S20500052413BE
S20500052505CB
S20500052610BF
S20500052700CE
S205000528B716
S20500052905C7
S20500052A10BB
S20500052B00CA
S20500052CA326
S20500052D893F
S20500052EA522
S20500052F4E78
S20500053023A2
S205000531A024
S205000532E6DD
S20500053300C2
S205000534239E
S205000535A020
S205000536E7D8
S20500053700BE
S205000538239A
S20500053900BC
S20500053A06B5
S20500053B00BA
S20500053C6F4A
S20500053DF0C8
S20500053E5F58
S20500053FF2C4
S205000540B7FE
S20500054107AD
S20500054210A3
S20500054300B2
S205000544931E
S20500054506AA
S205000546802F
S20500054703AB
S205000548238A
S2050005498A22
S20500054AD7D4
S20500054B4E5C
S20500054C1396
S20500054D07A1
S20500054E4760
S20500054F00A6
S2050005509312
S205000551079D
S20500055200A3
S205000553089A
S205000554237E
S2050005552080
S205000556F7A8
S205000557009E
S205000558B7E6
S2050005590795
S20500055A108B
S20500055B009A
S20500055CA3F6
S20500055D8A0E
S20500055E0790
S20500055F4E48
S2050005606F26
S205000561F0A4
S2050005621F74
S205000563F0A2
S205000564B7DA
S2050005650789
S205000566107F
S205000567008E
S20500056893FA
S2050005698705
S20500056A2764
S20500056B4F3B
S20500056CB7D2
S20500056D0682
S20500056E1077
S20500056F0086
S2050005708302
S205000571C5BF
S205000572077C
S2050005730082
S20500057483FE
S205000575C6BA
S2050005766619
S2050005774F2F
S20500057893EA
S205000579F587
S20500057AF586
S20500057B0F6B
S20500057C93E6
S20500057DF682
S20500057EF681
S20500057F0F67
S2050005806312
S205000581EE86
S205000582D59E
S205000583086A
S205000584B7BA
S2050005850769
S205000586105F
S205000587006E
S20500058883EA
S205000589C7A5
S20500058A0764
S20500058B4F1B
S20500058C93D6
S20500058DF771
S20500058EF770
S20500058F0F57
S2050005906302
S20500059182E2
S205000592075C
S205000593065C
S20500059493CE
S2050005950759
S2050005964718
S205000597015D
S20500059893CA
S2050005990656
S20500059A005B
S20500059B0456
S20500059C2336
S20500059DA0B8
S20500059ED780
S20500059F0056
S2050005A01342
S2050005A1074D
S2050005A2470C
S2050005A30052
S2050005A493BE
S2050005A50749
S2050005A6004F
S2050005A70846
S2050005A8232A
S2050005A9202C
S2050005AAF754
S2050005AB004A
S2050005AC2326
S2050005AD0048
S2050005AE0641
S2050005AF0046
S2050005B06FD6
S2050005B1F054
S2050005B21F24
S2050005B3EB57
S2050005B4B78A
S2050005B50739
S2050005B6102F
S2050005B7003E
S2050005B883BA
S2050005B9C775
S2050005BA2714
S2050005BB4FEB
S2050005BC93A6
S2050005BDF741
S2050005BEF740
S2050005BF0F27
S2050005C063D2
S2050005C19A9A
S2050005C2072C
S2050005C30032
S2050005C4131E
S2050005C50729
S2050005C6002F
S2050005C7022C
S2050005C8B776
S2050005C90725
S2050005CA101B
S2050005CB002A
S2050005CC2306
S2050005CD8A9E
S2050005CEE740
S2050005CF4ED8
S2050005D06FB6
S2050005D1F034
S2050005D21F04
S2050005D3E73B
S2050005D4130E
S2050005D50719
S2050005D6001F
S2050005D7031B
S2050005D8B766
S2050005D90715
S2050005DA100B
S2050005DB001A
S2050005DC23F6
S2050005DD8A8E
S2050005DEE730
S2050005DF4EC8
S2050005E06FA6
S2050005E1F024
S2050005E21FF4
S2050005E3E62C
S2050005E423EE
S2050005E58090
S2050005E60708
S2050005E7000E
S2050005E8B756
S2050005E90705
S2050005EA10FB
S2050005EB000A
S2050005EC9376
S2050005ED8781
S2050005EE27E0
S2050005EF4FB7
S2050005F06F96
S2050005F1F014
S2050005F2DF24
S2050005F3EF13
S2050005F4936E
S2050005F506FA
S2050005F647B8
S2050005F700FE
S2050005F8936A
S2050005F907F5
S2050005FA00FB
S2050005FB08F2
S2050005FC13E6
S2050005FD07F1
S2050005FE47B0
S2050005FF01F5
S20500060013E1
S20500060105EE
S20500060210E2
S20500060300F1
S205000604B739
S20500060505EA
S20500060610DE
S20500060700ED
S205000608A349
S2050006098962
S20500060AA545
S20500060B4E9B
S20500060C23C5
S20500060DA047
S20500060EF6F0
S20500060F00E5
S20500061023C1
S20500061120C3
S205000612F7EB
S20500061300E1
S20500061423BD
S20500061500DF
S20500061606D8
S20500061700DD
S2050006186F6D
S205000619F0EB
S20500061A9F3B
S20500061BE4F5
S20500061C8355
S20500061DC611
S20500061E07CF
S20500061F00D5
S205000620379D
S20500062106CD
S20500062210C2
S20500062300D1
S205000624933D
S205000625F6D9
S205000626F6D8
S2050006270FBE
S20500062813B9
S20500062906C5
S20500062A06C4
S20500062B4D7C
S20500062C3395
S20500062D06C1
S20500062ED6F0
S20500062F00C5
S2050006309331
S205000631863D
S20500063216AC
S20500063300C1
S205000634833D
S205000635457A
S20500063606B8
S20500063700BD
S2050006389329
S205000639F6C5
S20500063AF6C4
S20500063B0FAA
S20500063C13A5
S20500063D06B1
S20500063E07AF
S20500063F01B4
S2050006402391
S2050006418033
S205000642D7DB
S20500064300B1
S205000644139D
S20500064507A8
S2050006464767
S20500064701AC
S2050006489319
S20500064907A4
S20500064A00AA
S20500064B01A8
S20500064C2385
S20500064D2087
S20500064EB6F0
S20500064F00A5
S2050006502381
S2050006512083
S205000652F7AB
S20500065300A1
S2050006546F31
S205000655F0AF
S205000656DFBF
S205000657E0BD
S2050006581389
S2050006590794
S20500065A009A
S20500065B0297
S20500065CB7E1
S20500065D5740
S20500065E1086
S20500065F1A7B
S2050006602371
S205000661AAE9
S205000662E7AB
S2050006630091
S2050006646F21
S205000665F09F
S205000666DFAF
S205000667DFAE
S2050006686725
S205000669800B
S20500066A008A
S20500066B0089
S20500066CB7D1
S20500066D1770
S20500066E1076
S20500066F1A6B
S2050006708301
S205000671A7DC
S20500067287FB
S2050006730180
S205000674136D
S2050006750778
S205000676007E
S205000677007D
S2050006786319
S205000679A8D3
S20500067A1763
S20500067B0079
S20500067C93E5
S20500067DD7A0
S20500067E175F
S20500067F0075
S2050006801361
S205000681076C
S205000682175B
S2050006830071
S205000684E38D
S205000685BCB3
S2050006861757
S205000687FE6F
S205000688B7B5
S2050006890764
S20500068A105A
S20500068B0069
S20500068C1355
S20500068D1750
S20500068E273F
S20500068F0065
S20500069093D1
S20500069187DC
S205000692075B
S205000693441D
S205000694035D
S205000695F768
S205000696E777
S205000697203D
S20500069863F9
S2050006990853
S20500069A0753
S20500069B0257
S20500069C1345
S20500069D0156
S20500069E0155
S20500069FFF56
S2050006A02331
S2050006A1262D
S2050006A21141
S2050006A30051
S2050006A4E769
S2050006A5004F
S2050006A60747
S2050006A7004D
S2050006A8B795
S2050006A94704
S2050006AA103A
S2050006AB1A2F
S2050006AC93B5
S2050006AD87C0
S2050006AEC77F
S2050006AF0045
S2050006B00341
S2050006B1A79C
S2050006B2073B
S2050006B30041
S2050006B483BD
S2050006B5201F
S2050006B6C17D
S2050006B7003D
S2050006B83309
S2050006B947F4
S2050006BA97A3
S2050006BBC178
S2050006BC2315
S2050006BDA097
S2050006BEE74F
S2050006BF0035
S2050006C01321
S2050006C10132
S2050006C20131
S2050006C30130
S2050006C467C9
S2050006C580AF
S2050006C6002E
S2050006C7002D
S2050006C8B775
S2050006C947E4
S2050006CA101A
S2050006CB1A0F
S2050006CC9395
S2050006CD87A0
S2050006CEC75F
S2050006CF0025
S2050006D00321
S2050006D1A77C
S2050006D2071B
S2050006D30021
S2050006D433ED
S2050006D547D8
S2050006D69787
S2050006D7C15C
S2050006D823F9
S2050006D9A07B
S2050006DAE733
S2050006DB0019
S2050006DC67B1
S2050006DD8097
S2050006DE0016
S2050006DF0015
S2050006E0B75D
S2050006E1060D
S2050006E21002
S2050006E30011
S2050006E4937D
S2050006E58689
S2050006E60608
S2050006E750BD
S2050006E80309
S2050006E9C645
S2050006EA0604
S2050006EB0009
S2050006EC37D1
S2050006ED0700
S2050006EE10F6
S2050006EF0005
S2050006F09371
S2050006F107FC
S2050006F216EC
S2050006F305FC
S2050006F413ED
S2050006F507F8
S2050006F6C737
S2050006F74FAE
S2050006F89369
S2050006F9F704
S2050006FAF703
S2050006FB0FEA
S2050006FC13E5
S2050006FD05F2
S2050006FEC036
S2050006FF07EE
S2050007008370
S20500070125CD
S20500070207EA
S20500070300F0
S205000704638C
S2050007057876
S205000706F5F8
S20500070700EC
S2050007089358
S20500070907E3
S20500070A46A3
S20500070BFDEB
S20500070C9354
S20500070DF7EF
S20500070EF7EE
S20500070F0FD5
S2050007109350
S205000711855D
S20500071215CC
S20500071300E0
S20500071423BC
S20500071520BE
S205000716B726
S20500071700DC
S20500071837A4
S20500071907D3
S20500071A10C9
S20500071B00D8
S20500071C13C4
S20500071D07CF
S20500071E874E
S20500071F4F85
S20500072003D0
S20500072126AC
S20500072207CA
S20500072300D0
S20500072423AC
S205000725804E
S205000726F6D7
S20500072700CC
S20500072813B8
S20500072906C4
S20500072A16B3
S20500072B00C8
S20500072CB710
S20500072D477F
S20500072E10B5
S20500072F1AAA
S20500073023A0
S20500073120A2
S205000732C7FA
S20500073300C0
S205000734932C
S2050007358737
S205000736C7F6
S20500073700BC
S20500073803B8
S205000739A713
S20500073A07B2
S20500073B00B8
S20500073C3384
S20500073D476F
S20500073ED7DE
S20500073FC1F3
S2050007402390
S205000741A012
S205000742E7CA
S20500074300B0
S2050007446748
S205000745802E
S20500074600AD
S20500074700AC
S2050007483774
S20500074903A7
S20500074A1099
S20500074B00A8
S20500074C03A4
S20500074D4561
S20500074E5352
S20500074F5054
S2050007509310
S205000751079B
S205000752F0B1
S205000753019F
S205000754633C
S2050007550E90
S205000756F5A8
S2050007570696
S205000758B7E4
S2050007590793
S20500075A1089
S20500075B0098
S20500075CB7E0
S20500075D0690
S20500075E1085
S20500075F0094
S205000760B7DC
S205000761187A
S2050007621081
S2050007631A76
S20500076493FC
S2050007658707
S2050007668706
S205000767503C
S20500076893F8
S2050007698604
S20500076A96F3
S20500076B5038
S20500076C1374
S20500076D0680
S20500076E0085
S20500076F0084
S20500077093F0
S20500077188FA
S20500077288F9
S2050007730080
S205000774136C
S2050007750E70
S205000776106D
S205000777007C
S205000778FB80
S205000779502A
S20500077A0772
S20500077B0276
S20500077C83F4
S20500077DC5B1
S20500077E076E
S20500077F0074
S20500078093E0
S20500078187EB
S205000782274A
S2050007830070
S205000784630C
S20500078586E8
S2050007860568
S205000787006C
S20500078883E8
S205000789C5A5
S20500078A0663
S20500078B0068
S20500078C6304
S20500078D86E0
S20500078EA5C0
S20500078F0262
S2050007901350
S205000791065C
S205000792164B
S2050007930060
S20500079493CC
S20500079586D8
S2050007962637
S205000797005C
S205000798B7A4
S2050007994713
S20500079A1049
S20500079B1A3E
S20500079C1344
S20500079D0551
S20500079E1540
S20500079F0054
S2050007A0A3B0
S2050007A10250
S2050007A2A3AE
S2050007A35000
S2050007A493BC
S2050007A587C7
S2050007A6C786
S2050007A7004C
S2050007A80348
S2050007A9A7A3
S2050007AA0742
S2050007AB0048
S2050007AC3314
S2050007AD47FF
S2050007AEF74E
S2050007AFC183
S2050007B02320
S2050007B1A0A2
S2050007B2E75A
S2050007B30040
S2050007B467D8
S2050007B580BE
S2050007B6003D
S2050007B7003C
S2050007B80338
S2050007B9A892
S2050007BA0831
S2050007BB0038
S2050007BCB384
S2050007BD1521
S2050007BECE67
S2050007BF0034
S2050007C093A0
S2050007C1C56D
S2050007C2F53C
S2050007C3FF31
S2050007C4B37C
S2050007C5F539
S2050007C60528
S2050007C7012B
S2050007C82308
S2050007C9A08A
S2050007CAB871
S2050007CB0028
S2050007CC6FB8
S2050007CDF036
S2050007CE5FC6
S2050007CFFC28
S2050007D0B76C
S2050007D1071B
S2050007D21011
S2050007D30020
S2050007D437E8
S2050007D51509
S2050007D6100D
S2050007D71A02
S2050007D89388
S2050007D98793
S2050007DA8792
S2050007DB50C8
S2050007DC9384
S2050007DD0610
S2050007DE0015
S2050007DF0014
S2050007E01300
S2050007E1050D
S2050007E2858C
S2050007E30010
S2050007E413FC
S2050007E50806
S2050007E610FD
S2050007E7000C
S2050007E8FB10
S2050007E950BA
S2050007EA0801
S2050007EB0206
S2050007EC0304
S2050007EDC640
S2050007EE07FE
S2050007EF0004
S2050007F0B350
S2050007F115ED
S2050007F2D829
S2050007F30000
S2050007F4639C
S2050007F508F6
S2050007F606F7
S2050007F700FC
S2050007F803F8
S2050007F926D4
S2050007FA05F4
S2050007FB00F8
S2050007FC33C4
S2050007FDE610
S2050007FEC530
S2050007FF00F4
S20500080023CF
S20500080120D1
S205000802C52B
S20500080300EF
S205000804935B
S2050008058667
S20500080616D6
S20500080700EB
S2050008089357
S2050008098762
S20500080A27C1
S20500080B00E7
S20500080CB72F
S20500080D479E
S20500080E10D4
S20500080F1AC9
S205000810A33F
S20500081102DF
S20500081203DD
S205000813508F
S205000814934B
S2050008158756
S205000816C715
S20500081700DB
S20500081803D7
S205000819A732
S20500081A07D1
S20500081B00D7
S20500081C33A3
S20500081D478E
S20500081EF7DD
S20500081FC112
S20500082023AF
S205000821A031
S205000822E7E9
S20500082300CF
S2050008246767
S205000825804D
S20500082600CC
S20500082700CB
S205000828F3D7
S20500082925A4
S20500082A10B8
S20500082B3493
S20500082C378F
S20500082D05C0
S20500082E10B4
S20500082F00C3
S20500083003BF
S205000831A61B
S20500083205BB
S20500083300BF
S20500083413AB
S20500083501BC
S20500083601BB
S205000837FFBC
S20500083813A7
S20500083905B4
S20500083A05B3
S20500083B199E
S20500083C2393
S20500083D268F
S20500083E11A3
S20500083F00B3
S205000840EFC3
S20500084100B1
S2050008424070
S2050008433D72
S205000844139B
S20500084505A8
S205000846109C
S20500084700AB
S205000848EFBB
S20500084900A9
S20500084A9018
S20500084B6344
S20500084C1393
S20500084D01A4
S20500084E01A3
S20500084FFCA7
S205000850237F
S2050008512C75
S205000852811F
S205000853029D
S205000854237B
S2050008552A73
S205000856910B
S2050008570299
S2050008582377
S2050008592E6B
S20500085A1187
S20500085B0295
S20500085C2373
S20500085D286D
S20500085E2173
S20500085F0390
S205000860236F
S205000861266B
S205000862315F
S205000863038C
S205000864236B
S2050008652469
S205000866414B
S2050008670388
S2050008682367
S2050008692267
S20500086A5137
S20500086B0384
S20500086C2363
S20500086D2065
S20500086E6123
S20500086F0380
S205000870136F
S20500087184FD
S205000872067A
S205000873007F
S20500087493EB
S2050008750479
S2050008760775
S205000877007B
S2050008786317
S2050008790475
S20500087A0573
S20500087B2255
S20500087C1363
S20500087D086D
S20500087E056F
S20500087F0073
S205000880630F
S205000881046D
S205000882066A
S205000883006F
S205000884630B
S205000885ACC1
S205000886A5C7
S2050008872C3F
S2050008881357
S2050008890762
S20500088A0068
S20500088B0166
S20500088CA3C3
S20500088D0F56
S20500088E0163
S20500088F0063
S20500089063FF
S2050008918ED3
S205000892E57B
S205000893144B
S205000894134B
S2050008950E4F
S205000896005C
S205000897005B
S20500089863F7
S2050008990257
S20500089A0553
S20500089B1E39
S20500089C371F
S20500089D0352
S20500089E1044
S20500089F0053
S2050008A0B79B
S2050008A1A8A9
S2050008A299B7
S2050008A31936
S2050008A4133B
S2050008A50746
S2050008A6E16B
S2050008A7014A
S2050008A81337
S2050008A90346
S2050008AA0345
S2050008AB4CFB
S2050008AC93B3
S2050008AD88BD
S2050008AE98AC
S2050008AF99AA
S2050008B093AF
S2050008B156EB
S2050008B21828
S2050008B3003F
S2050008B493AB
S2050008B557E6
S2050008B62814
S2050008B7003B
S2050008B8B387
S2050008B987B2
S2050008BAD761
S2050008BB0037
S2050008BC1323
S2050008BDD65F
S2050008BE47ED
S2050008BF0033
S2050008C0B37F
S2050008C187AA
S2050008C2C769
S2050008C3002F
S2050008C4131B
S2050008C5D657
S2050008C687A5
S2050008C7002B
S2050008C8B377
S2050008C987A2
S2050008CAC761
S2050008CB0027
S2050008CCB373
S2050008CD061F
S2050008CE180C
S2050008CF43E0
S2050008D0130F
S2050008D155CC
S2050008D238E8
S2050008D3001F
S2050008D4130B
S2050008D5D647
S2050008D60715
S2050008D7011A
S2050008D8DB3F
S2050008D9A772
S2050008DAC751
S2050008DB8691
S2050008DC5BBB
S2050008DDA570
S2050008DEA66E
S2050008DFB85B
S2050008E0030F
S2050008E1759C
S2050008E2A36D
S2050008E3000F
S2050008E4937B
S2050008E59578
S2050008E617F5
S2050008E7000B
S2050008E89377
S2050008E99673
S2050008EA37D1
S2050008EB0007
S2050008EC13F3
S2050008ED06FF
S2050008EE689C
S2050008EF0003
S2050008F0B34F
S2050008F1867B
S2050008F2D52B
S2050008F300FF
S2050008F413EB
S2050008F505F8
S2050008F605F7
S2050008F703F8
S2050008F8DB1F
S2050008F936C3
S2050008FAD622
S2050008FB886F
S2050008FC13E3
S2050008FD7580
S2050008FEF5FF
S2050008FF0FE4
S20500090033BE
S2050009018868
S205000902D718
S20500090300EE
S205000904935A
S20500090509E3
S20500090607E4
S20500090700EA
S205000908AB3E
S2050009090FD9
S20500090AA740
S20500090BFEE8
S20500090CE302
S20500090D12D2
S20500090E08DB
S20500090FFAE8
S205000910637E
S2050009110ED2
S2050009120ED1
S20500091322BC
S205000914637A
S2050009150AD2
S20500091604D7
S20500091712C8
S2050009189346
S205000919F7E1
S20500091A24B3
S20500091B00D6
S20500091C6372
S20500091D864E
S20500091E07CC
S20500091F12C0
S20500092013BE
S20500092105CB
S205000922D0FF
S20500092302CC
S20500092413BA
S20500092504C8
S205000926F4D7
S205000927FFCB
S205000928EFDA
S20500092900C8
S20500092AD0F7
S20500092B4B7B
S20500092C13B2
S20500092D893B
S20500092E09BA
S20500092F00C2
S20500093003BE
S205000931CAF6
S20500093209B6
S20500093300BE
S205000934932A
S2050009350AB2
S20500093610AB
S20500093700BA
S2050009386356
S2050009395C5C
S20500093A8037
S20500093B0EA8
S20500093C6352
S20500093D0CA8
S20500093E0AA9
S20500093F149E
S205000940931E
S20500094107A9
S2050009421996
S20500094300AE
S205000944B3FA
S2050009458626
S2050009462784
S2050009474169
S2050009480B9E
S205000949C7E1
S20500094A1790
S20500094B00A6
S20500094CE3C2
S20500094D1C88
S20500094E079C
S20500094FFEA4
S205000950138E
S2050009510B95
S205000952009F
S205000953009E
S205000954633A
S205000955C2DA
S2050009568615
S2050009571486
S205000958B3E6
S205000959890F
S20500095A1483
S20500095BC0D6
S20500095C9302
S20500095DF99B
S20500095E098A
S20500095F0191
S205000960B3DE
S205000961B4DC
S205000962147B
S205000963FC92
S20500096493FA
S2050009658903
S2050009660982
S2050009670288
S2050009681376
S2050009690484
S20500096A0B7C
S20500096B0086
S20500096C6322
S20500096D92F2
S20500096E047F
S20500096F1072
S205000970631E
S2050009715E22
S205000972601F
S2050009732955
S205000974136A
S2050009750478
S205000976F487
S205000977FF7B
S2050009781366
S20500097985F3
S20500097A096E
S20500097B0076
S20500097CEF86
S20500097D0074
S20500097E90E3
S20500097F462C
S205000980E38E
S2050009811A56
S205000982046B
S205000983FE70
S205000984630A
S2050009850E5E
S2050009860A61
S2050009870268
S20500098893D6
S2050009890464
S20500098A194E
S20500098B0066
S20500098C1352
S20500098D055F
S20500098E0A59
S20500098F0062
S205000990332E
S2050009910957
S2050009922B34
S205000993411D
S205000994EF6E
S205000995005C
S205000996104B
S2050009974515
S2050009983326
S2050009990A4E
S20500099A99BE
S20500099B0056
S20500099C0B4A
S20500099DC58F
S20500099E143F
S20500099F0052
S2050009A0E36E
S2050009A11A36
S2050009A2054A
S2050009A3FE50
S2050009A463EA
S2050009A55CF0
S2050009A680CB
S2050009A72228
S2050009A893B6
S2050009A90444
S2050009AA0443
S2050009AB0046
S2050009AC93B2
S2050009AD84C0
S2050009AEF44F
S2050009AFFF43
S2050009B0132E
S2050009B185BB
S2050009B20936
S2050009B3003E
S2050009B4EF4E
S2050009B5003C
S2050009B6102B
S2050009B743F7
S2050009B8E356
S2050009B99A9E
S2050009BA0433
S2050009BBFE38
S2050009BC3302
S2050009BD0B29
S2050009BE8AA9
S2050009BF0032
S2050009C033FE
S2050009C185AB
S2050009C26AC5
S2050009C3012D
S2050009C483AA
S2050009C5200C
S2050009C6C16A
S2050009C70327
S2050009C80326
S2050009C92404
S2050009CA81A6
S2050009CB0323
S2050009CC83A2
S2050009CD2400
S2050009CE41E2
S2050009CF031F
S2050009D0031E
S2050009D129F7
S2050009D2011E
S2050009D3031B
S2050009D4839A
S2050009D529F3
S2050009D6C15A
S2050009D70218
S2050009D80316
S2050009D92AEE
S2050009DA8196
S2050009DB0214
S2050009DC8392
S2050009DD2AEA
S2050009DE41D2
S2050009DF0210
S2050009E0030E
S2050009E12BE5
S2050009E2010E
S2050009E3020C
S2050009E413FA
S2050009E5010B
S2050009E6010A
S2050009E70406
S2050009E867A2
S2050009E98088
S2050009EA0007
S2050009EB0006
S2050009EC63A2
S2050009ED0004
S2050009EE05FE
S2050009EF20E2
S2050009F0936E
S2050009F106FA
S2050009F2E11E
S2050009F301FD
S2050009F4936A
S2050009F58775
S2050009F66794
S2050009F7FCFE
S2050009F813E6
S2050009F906F2
S2050009FA9067
S2050009FB00F6
S2050009FC33C2
S2050009FD37BD
S2050009FE48AB
S2050009FFF6FC
S205000A0033BD
S205000A01856A
S205000A02E707
S205000A0300ED
S205000A0413D9
S205000A055893
S205000A0648A2
S205000A0700E9
S205000A0813D5
S205000A09895E
S205000A0A06E0
S205000A0B00E5
S205000A0C6381
S205000A0D449F
S205000A0EE6FC
S205000A0F00E1
S205000A1013CD
S205000A1105DA
S205000A1207D7
S205000A1300DD
S205000A1413C9
S205000A1505D6
S205000A1605D5
S205000A1703D6
S205000A1813C5
S205000A197562
S205000A1AF5E1
S205000A1B0FC6
S205000A1CAB29
S205000A1D8F44
S205000A1EA62C
S205000A1FFED3
S205000A20E3ED
S205000A211EB1
S205000A2208C6
S205000A23FCD1
S205000A2413B9
S205000A250AC1
S205000A2605C5
S205000A2700C9
S205000A289335
S205000A290ABD
S205000A2A00C6
S205000A2B00C5
S205000A2CE3E1
S205000A2D487B
S205000A2E8042
S205000A2FF0D1
S205000A30B30D
S205000A31B40B
S205000A3214AA
S205000A33FCC1
S205000A346359
S205000A35803B
S205000A3604B6
S205000A3718A1
S205000A389325
S205000A3909AE
S205000A3A00B6
S205000A3B02B3
S205000A3C13A1
S205000A3D0BA8
S205000A3E00B2
S205000A3F00B1
S205000A40E3CD
S205000A41149B
S205000A420AA4
S205000A43F4B9
S205000A446F3D
S205000A45F0BB
S205000A46DFCB
S205000A47F7B2
S205000A489315
S205000A4907A0
S205000A4AD0D6
S205000A4B02A3
S205000A4C1391
S205000A4D891A
S205000A4EF9A9
S205000A4FFFA2
S205000A50A3FD
S205000A518F10
S205000A52F9A5
S205000A53FE9F
S205000A541389
S205000A550A91
S205000A56D0CA
S205000A570297
S205000A589305
S205000A590A8D
S205000A5A0096
S205000A5B0095
S205000A5CE3B1
S205000A5D4251
S205000A5E8012
S205000A5FEEA3
S205000A60B3DD
S205000A61B4DB
S205000A62147A
S205000A63FC91
S205000A6493F9
S205000A650982
S205000A66008A
S205000A670287
S205000A6893F5
S205000A690A7D
S205000A6A0086
S205000A6B0085
S205000A6C6321
S205000A6D8003
S205000A6E047E
S205000A6F1A67
S205000A70631D
S205000A710A75
S205000A720A74
S205000A731667
S205000A741369
S205000A750B70
S205000A76007A
S205000A770079
S205000A786F09
S205000A79F087
S205000A7A1F57
S205000A7BF184
S205000A7C1361
S205000A7D0A69
S205000A7E0072
S205000A7F0071
S205000A80135D
S205000A810966
S205000A82F17D
S205000A83016C
S205000A84E389
S205000A855E0D
S205000A8680EA
S205000A87FC6D
S205000A881355
S205000A890A5D
S205000A8A0066
S205000A8B0065
S205000A8C93D1
S205000A8D0A59
S205000A8E0062
S205000A8F0061
S205000A90134D
S205000A910956
S205000A92F16D
S205000A93015C
S205000A9493C9
S205000A950655
S205000A96005A
S205000A970059
S205000A983325
S205000A990B4C
S205000A9AD482
S205000A9B4015
S205000A9C6FE5
S205000A9DF063
S205000A9EDF73
S205000A9FEB66
S205000AA093BD
S205000AA10748
S205000AA2004E
S205000AA3034A
S205000AA42329
S205000AA5004B
S205000AA6F159
S205000AA70049
S205000AA8A3A5
S205000AA90047
S205000AAA0145
S205000AAB0045
S205000AAC63E1
S205000AAD5AE9
S205000AAED072
S205000AAF0C35
S205000AB093AD
S205000AB10936
S205000AB2112D
S205000AB3003D
S205000AB41329
S205000AB587B4
S205000AB60931
S205000AB70039
S205000AB893A5
S205000AB90730
S205000ABA0036
S205000ABB0035
S205000ABC8BA9
S205000ABD46ED
S205000ABE171B
S205000ABF0031
S205000AC0939D
S205000AC187A8
S205000AC21717
S205000AC3002D
S205000AC4E349
S205000AC59C8F
S205000AC60624
S205000AC7FE2B
S205000AC863C5
S205000AC9C85F
S205000ACA879F
S205000ACB0C19
S205000ACC1311
S205000ACD041F
S205000ACE0022
S205000ACF0021
S205000AD033ED
S205000AD18A95
S205000AD2140A
S205000AD3C05D
S205000AD41309
S205000AD57AA1
S205000AD60A10
S205000AD70118
S205000AD8B365
S205000AD9B463
S205000ADA1402
S205000ADBFC19
S205000ADC1301
S205000ADD0A09
S205000ADE0A08
S205000ADF020F
S205000AE013FD
S205000AE10906
S205000AE2000E
S205000AE3000D
S205000AE463A9
S205000AE59279
S205000AE60406
S205000AE70207
S205000AE89375
S205000AE90403
S205000AEA0402
S205000AEB0005
S205000AEC63A1
S205000AED5CA7
S205000AEE8082
S205000AEF10F1
S205000AF0936D
S205000AF1847B
S205000AF2F40A
S205000AF3FFFE
S205000AF413E9
S205000AF505F6
S205000AF60AF0
S205000AF700F9
S205000AF8EF09
S205000AF900F7
S205000AFAD026
S205000AFB2EC7
S205000AFCE311
S205000AFD9A59
S205000AFE04EE
S205000AFFFEF3
S205000B0013DC
S205000B0109E5
S205000B0204E9
S205000B0300EC
S205000B0413D8
S205000B058466
S205000B0604E5
S205000B0700E8
S205000B089354
S205000B098462
S205000B0A09DC
S205000B0B00E4
S205000B0C13D0
S205000B0D05DD
S205000B0E00E1
S205000B0F03DD
S205000B106F70
S205000B1100DE
S205000B12805D
S205000B1300DC
S205000B1413C8
S205000B158951
S205000B160ACF
S205000B1700D8
S205000B18EFE8
S205000B1900D6
S205000B1AD005
S205000B1B2CA8
S205000B1C0BC8
S205000B1DC50D
S205000B1E14BD
S205000B1F00D0
S205000B20933C
S205000B210AC4
S205000B2219B4
S205000B2300CC
S205000B24E3E8
S205000B2518B2
S205000B2605C4
S205000B27FECA
S205000B286364
S205000B295A6C
S205000B2A8045
S205000B2B0CB8
S205000B2C9330
S205000B2D04BE
S205000B2E04BD
S205000B2F00C0
S205000B30932C
S205000B31843A
S205000B32F4C9
S205000B33FFBD
S205000B3413A8
S205000B3505B5
S205000B360AAF
S205000B3700B8
S205000B38EFC8
S205000B3900B6
S205000B3AD0E5
S205000B3B2A8A
S205000B3CE3D0
S205000B3D9A18
S205000B3E04AD
S205000B3FFEB2
S205000B40337C
S205000B4104AA
S205000B428924
S205000B4300AC
S205000B441398
S205000B4505A5
S205000B461495
S205000B4700A8
S205000B486F38
S205000B49F0B6
S205000B4ADFC6
S205000B4BE7BD
S205000B4C1390
S205000B4D0A98
S205000B4E059C
S205000B4F00A0
S205000B50138C
S205000B518915
S205000B520994
S205000B53009C
S205000B549308
S205000B550A90
S205000B560099
S205000B570098
S205000B586F28
S205000B59F0A6
S205000B5A5F36
S205000B5BEDA7
S205000B5C6330
S205000B5D4250
S205000B5E058C
S205000B5F068A
S205000B60A3EC
S205000B610F7F
S205000B62018C
S205000B63008C
S205000B641378
S205000B650E7C
S205000B660089
S205000B670088
S205000B68E3A4
S205000B691A6C
S205000B6A0580
S205000B6BD2B2
S205000B6CE3A0
S205000B6D4E34
S205000B6ED0B1
S205000B6FF090
S205000B70136C
S205000B710A74
S205000B72007D
S205000B73007C
S205000B7493E8
S205000B750A70
S205000B760079
S205000B770078
S205000B781364
S205000B79096D
S205000B7AF184
S205000B7B0173
S205000B7C6F04
S205000B7DF082
S205000B7E5F12
S205000B7FEB85
S205000B80B3BC
S205000B81343A
S205000B821756
S205000B83FC70
S205000B846308
S205000B858EDC
S205000B860465
S205000B870068
S205000B881354
S205000B890A5C
S205000B8A0065
S205000B8B0262
S205000B8C1350
S205000B8D0959
S205000B8E0061
S205000B8F0060
S205000B9093CC
S205000B910955
S205000B92114C
S205000B93005C
S205000B946FEC
S205000B95F06A
S205000B965FFA
S205000B97F761
S205000B983324
S205000B990452
S205000B9AF461
S205000B9B4014
S205000B9C6FE4
S205000B9DF062
S205000B9E5FF2
S205000B9FF35D
S205000BA093BC
S205000BA1044A
S205000BA20449
S205000BA3004C
S205000BA41338
S205000BA50A40
S205000BA60049
S205000BA70246
S205000BA81334
S205000BA90442
S205000BAA0045
S205000BAB0044
S205000BAC93B0
S205000BAD0939
S205000BAE1130
S205000BAF0040
S205000BB06FD0
S205000BB1F04E
S205000BB21F1E
S205000BB3F547
S205000BB493A8
S205000BB50931
S205000BB60039
S205000BB70236
S205000BB81324
S205000BB90B2B
S205000BBA0035
S205000BBB0034
S205000BBC6FC4
S205000BBDF042
S205000BBE9F92
S205000BBFDC54
S205000BC033FC
S205000BC10826
S205000BC2A08D
S205000BC340EC
S205000BC4A388
S205000BC50F1B
S205000BC60128
S205000BC70028
S205000BC81314
S205000BC90E18
S205000BCA1015
S205000BCB0024
S205000BCC9390
S205000BCD0919
S205000BCEF130
S205000BCF011F
S205000BD0E33C
S205000BD11608
S205000BD20815
S205000BD3CC50
S205000BD4E338
S205000BD50A10
S205000BD60415
S205000BD7E632
S205000BD86FA8
S205000BD9F026
S205000BDA1FF6
S205000BDBD440
S205000BDC1300
S205000BDD0B07
S205000BDE0A07
S205000BDF0010
S205000BE06FA0
S205000BE1F01E
S205000BE21FEE
S205000BE3DE2E
S205000BE413F8
S205000BE50A00
S205000BE60009
S205000BE70008
S205000BE86F98
S205000BE9F016
S205000BEADF26
S205000BEBDB29
S205000BEC13F0
S205000BED0AF8
S205000BEE0001
S205000BEF0000
S205000BF013EC
S205000BF109F5
S205000BF2F10C
S205000BF301FB
S205000BF49368
S205000BF50AF0
S205000BF600F9
S205000BF700F8
S205000BF86F88
S205000BF9F006
S205000BFA5F96
S205000BFBE311
S205000BFC13E0
S205000BFD856D
S205000BFE0AE7
S205000BFF00F0
S205000C006F7F
S205000C01F0FD
S205000C025F8D
S205000C03DC0F
S205000C0413D7
S205000C0504E5
S205000C0600E8
S205000C0700E7
S205000C086F77
S205000C09F0F5
S205000C0A9F45
S205000C0BEFF4
S205000C0C13CF
S205000C0D0BD6
S205000C0E00E0
S205000C0F00DF
S205000C106F6F
S205000C11F0ED
S205000C125F7D
S205000C13D704
S205000C1413C7
S205000C1501D8
S205000C1601D7
S205000C17F6E1
S205000C1823B3
S205000C1928AD
S205000C1A21B3
S205000C1B07CC
S205000C1C23AF
S205000C1D24AD
S205000C1E418F
S205000C1F07C8
S205000C2023AB
S205000C212CA1
S205000C22814B
S205000C2305C6
S205000C2423A7
S205000C252E9B
S205000C2611B7
S205000C2706C1
S205000C2823A3
S205000C292C99
S205000C2A8143
S205000C2B06BD
S205000C2C239F
S205000C2D2A97
S205000C2E912F
S205000C2F06B9
S205000C30239B
S205000C312697
S205000C32318B
S205000C3307B4
S205000C342397
S205000C352297
S205000C365167
S205000C3707B0
S205000C382393
S205000C392095
S205000C3A6153
S205000C3B07AC
S205000C3C238F
S205000C3D2E83
S205000C3E713F
S205000C3F05AA
S205000C40238B
S205000C412A83
S205000C42911B
S205000C4305A6
S205000C442387
S205000C452881
S205000C46A107
S205000C4705A2
S205000C482383
S205000C49267F
S205000C4AB1F3
S205000C4B059E
S205000C4C237F
S205000C4D227F
S205000C4EB1EF
S205000C4F0897
S205000C50237B
S205000C512479
S205000C52C1DB
S205000C530893
S205000C542377
S205000C552673
S205000C56D1C7
S205000C57088F
S205000C582373
S205000C59286D
S205000C5AE1B3
S205000C5B088B
S205000C5C236F
S205000C5D2A67
S205000C5EF19F
S205000C5F0887
S205000C60236B
S205000C612C61
S205000C62018B
S205000C630982
S205000C642367
S205000C652E5B
S205000C661177
S205000C67097E
S205000C681373
S205000C690C79
S205000C6A057F
S205000C6B0083
S205000C6C037F
S205000C6D453C
S205000C6E057B
S205000C6F007F
S205000C70136B
S205000C710A73
S205000C72413B
S205000C730873
S205000C742357
S205000C752E4B
S205000C764137
S205000C770176
S205000C781363
S205000C79096C
S205000C7A0074
S205000C7B0073
S205000C7C630F
S205000C7D0A67
S205000C7E056B
S205000C7F026D
S205000C8093DB
S205000C810964
S205000C82501C
S205000C830269
S205000C841357
S205000C850B5E
S205000C86D098
S205000C870265
S205000C8893D3
S205000C890461
S205000C8A0064
S205000C8B0360
S205000C8C134F
S205000C8D045D
S205000C8E90D0
S205000C8F005F
S205000C9093CB
S205000C910A53
S205000C92302C
S205000C930754
S205000C9463F7
S205000C950E4B
S205000C963523
S205000C970552
S205000C98EF67
S205000C990055
S205000C9AD084
S205000C9B143F
S205000C9C133F
S205000C9D0948
S205000C9E1937
S205000C9F004F
S205000CA093BB
S205000CA10B42
S205000CA20C40
S205000CA3004B
S205000CA40347
S205000CA5C584
S205000CA61B2D
S205000CA70047
S205000CA81333
S205000CA98CB9
S205000CAA1B29
S205000CAB0043
S205000CACE35F
S205000CAD142D
S205000CAE053B
S205000CAFFE41
S205000CB083BB
S205000CB1201D
S205000CB2C17B
S205000CB30734
S205000CB41327
S205000CB50534
S205000CB6092F
S205000CB70037
S205000CB80333
S205000CB92411
S205000CBA81B3
S205000CBB072C
S205000CBC83AF
S205000CBD240D
S205000CBE41EF
S205000CBF0728
S205000CC0032B
S205000CC12904
S205000CC2012B
S205000CC30724
S205000CC483A7
S205000CC52900
S205000CC6C167
S205000CC70621
S205000CC80323
S205000CC92AFB
S205000CCA81A3
S205000CCB061D
S205000CCC839F
S205000CCD2AF7
S205000CCE41DF
S205000CCF0619
S205000CD0031B
S205000CD12BF2
S205000CD2011B
S205000CD30615
S205000CD48397
S205000CD52BEE
S205000CD6C157
S205000CD70512
S205000CD80313
S205000CD92CE9
S205000CDA8193
S205000CDB050E
S205000CDC838F
S205000CDD2CE5
S205000CDE41CF
S205000CDF050A
S205000CE0030B
S205000CE12DE0
S205000CE2010B
S205000CE30506
S205000CE48387
S205000CE52DDC
S205000CE6C147
S205000CE70403
S205000CE813F3
S205000CE90104
S205000CEA0103
S205000CEB0AF9
S205000CEC679B
S205000CED8081
S205000CEE0000
S205000CEF00FF
S205000CF0837B
S205000CF147B6
S205000CF21CE0
S205000CF300FB
S205000CF49367
S205000CF50BEE
S205000CF61CDC
S205000CF700F7
S205000CF8E313
S205000CF98C69
S205000CFA07ED
S205000CFBFAF9
S205000CFC638F
S205000CFD826F
S205000CFE37B9
S205000CFF15DA
S205000D0013DA
S205000D0107E5
S205000D0200EB
S205000D0300EA
S205000D046386
S205000D058662
S205000D066780
S205000D0713D3
S205000D086382
S205000D099E46
S205000D0A974C
S205000D0B00E2
S205000D0C934E
S205000D0D865A
S205000D0E1BC4
S205000D0F00DE
S205000D10835A
S205000D11C715
S205000D1206D5
S205000D1300DA
S205000D149346
S205000D158B4D
S205000D1606D1
S205000D1700D6
S205000D1833A2
S205000D19478D
S205000D1A17BC
S205000D1BC012
S205000D1C933E
S205000D1D864A
S205000D1E16B9
S205000D1F00CE
S205000D20E3EA
S205000D218844
S205000D229734
S205000D23FECC
S205000D249336
S205000D258543
S205000D2607C0
S205000D27FDC9
S205000D289332
S205000D29F6CE
S205000D2AF5CE
S205000D2B0FB3
S205000D2C635E
S205000D2D6060
S205000D2ED4EB
S205000D2F229C
S205000D3013AA
S205000D318537
S205000D321BA0
S205000D3300BA
S205000D3413A6
S205000D350CAC
S205000D3600B7
S205000D3700B6
S205000D3813A2
S205000D39169E
S205000D3A1C97
S205000D3B00B2
S205000D3C931E
S205000D3D0BA5
S205000D3E05AA
S205000D3F00AE
S205000D40139A
S205000D411C90
S205000D423C6F
S205000D4300AA
S205000D448B1E
S205000D454761
S205000D461592
S205000D4700A6
S205000D483372
S205000D490C98
S205000D4A861D
S205000D4B01A1
S205000D4C336E
S205000D4D8C14
S205000D4E851A
S205000D4F019D
S205000D50930A
S205000D518517
S205000D520794
S205000D53FD9D
S205000D549306
S205000D55F6A2
S205000D56F5A2
S205000D570F87
S205000D58E3B2
S205000D597024
S205000D5AD4BF
S205000D5BFE94
S205000D5C632E
S205000D5D860A
S205000D5E5738
S205000D5F0F7F
S205000D6093FA
S205000D610686
S205000D62404B
S205000D630684
S205000D646326
S205000D658206
S205000D66D7B0
S205000D671C6A
S205000D6893F2
S205000D69067E
S205000D6A5033
S205000D6B077B
S205000D6C631E
S205000D6D84FC
S205000D6ED7A8
S205000D6F1E60
S205000D7093EA
S205000D710676
S205000D7280FB
S205000D730773
S205000D746316
S205000D7584F4
S205000D76D7A0
S205000D772254
S205000D7893E2
S205000D79066E
S205000D7A80F3
S205000D7B056D
S205000D7C630E
S205000D7D8EE2
S205000D7ED798
S205000D7F2E40
S205000D8093DA
S205000D810666
S205000D82303B
S205000D830664
S205000D84E386
S205000D8590D8
S205000D86D790
S205000D87F274
S205000D8883E2
S205000D894D17
S205000D8A0A59
S205000D8B0062
S205000D8C134E
S205000D8D0A56
S205000D8E4A15
S205000D8F005E
S205000D90233A
S205000D91223A
S205000D92411A
S205000D930159
S205000D942336
S205000D950C4C
S205000D96B1A6
S205000D970155
S205000D98A3B2
S205000D990C48
S205000D9A0152
S205000D9B0052
S205000D9C63EE
S205000D9D064A
S205000D9E0C43
S205000D9F4C02
S205000DA063EA
S205000DA182CA
S205000DA20D3E
S205000DA34802
S205000DA493B6
S205000DA50642
S205000DA691B6
S205000DA70145
S205000DA893B2
S205000DA9073D
S205000DAA0043
S205000DAB0042
S205000DAC0B36
S205000DADC67A
S205000DAE1629
S205000DAF003E
S205000DB093AA
S205000DB187B5
S205000DB21724
S205000DB3003A
S205000DB4E356
S205000DB51C1C
S205000DB60631
S205000DB7FE38
S205000DB893A2
S205000DB90C28
S205000DBA0033
S205000DBB0032
S205000DBC63CE
S205000DBDC66A
S205000DBE87A8
S205000DBF47E7
S205000DC0B37A
S205000DC10725
S205000DC21714
S205000DC3C06A
S205000DC41316
S205000DC5FA2E
S205000DC60720
S205000DC70125
S205000DC833F2
S205000DC937ED
S205000DCA170C
S205000DCBFC26
S205000DCC130E
S205000DCD0A16
S205000DCE0A15
S205000DCF021C
S205000DD0130A
S205000DD18D8F
S205000DD20C0F
S205000DD3001A
S205000DD463B6
S205000DD51EFA
S205000DD60710
S205000DD746D0
S205000DD863B2
S205000DD95ABA
S205000DDA9083
S205000DDB61B1
S205000DDC13FE
S205000DDD0D03
S205000DDEFD12
S205000DDFFF0F
S205000DE013FA
S205000DE10507
S205000DE20A01
S205000DE3000A
S205000DE4EF1A
S205000DE50008
S205000DE610F7
S205000DE70006
S205000DE8E322
S205000DE91AEA
S205000DEA0DF6
S205000DEBFE04
S205000DEC639E
S205000DED8C74
S205000DEE0DF2
S205000DEF02FC
S205000DF013EA
S205000DF10CF0
S205000DF2916A
S205000DF301F9
S205000DF413E6
S205000DF58573
S205000DF60DEA
S205000DF700F6
S205000DF8EF06
S205000DF900F4
S205000DFAC033
S205000DFB7E74
S205000DFC8B66
S205000DFD4DA3
S205000DFE1CD3
S205000DFF00EE
S205000E009359
S205000E018C5F
S205000E021CCE
S205000E0300E9
S205000E04E305
S205000E05984F
S205000E060DD9
S205000E07FEE7
S205000E086381
S205000E095E85
S205000E0AA042
S205000E0B01E0
S205000E0C13CD
S205000E0D0CD3
S205000E0E0DD1
S205000E0F00DD
S205000E1013C9
S205000E110CCF
S205000E12FCDE
S205000E13FFDA
S205000E1413C5
S205000E1505D2
S205000E160ACC
S205000E1700D5
S205000E18EFE5
S205000E1900D3
S205000E1AC012
S205000E1B7C55
S205000E1CE3ED
S205000E1D1AB5
S205000E1E0CC2
S205000E1FFECF
S205000E20B319
S205000E210CBF
S205000E229D2D
S205000E2301C8
S205000E243395
S205000E2509BE
S205000E26992D
S205000E2701C4
S205000E2803C1
S205000E292A99
S205000E2A4181
S205000E2B00C1
S205000E2C6F51
S205000E2DF0CF
S205000E2E9F1F
S205000E2FE7D6
S205000E308339
S205000E314774
S205000E322C8E
S205000E3300B9
S205000E349325
S205000E350BAC
S205000E362C8A
S205000E3700B5
S205000E3813A1
S205000E3907AC
S205000E3A10A2
S205000E3B00B1
S205000E3C6F41
S205000E3DF0BF
S205000E3EDFCF
S205000E3FECC1
S205000E401399
S205000E418C1F
S205000E420B9F
S205000E4300A9
S205000E446F39
S205000E45F0B7
S205000E465F47
S205000E47E5C0
S205000E4803A1
S205000E492D76
S205000E4A0A98
S205000E4B00A1
S205000E4C138D
S205000E4D0A95
S205000E4E4A54
S205000E4F009D
S205000E502379
S205000E512477
S205000E524159
S205000E530198
S205000E546335
S205000E55088F
S205000E560D89
S205000E573065
S205000E586331
S205000E590093
S205000E5A0C86
S205000E5B127F
S205000E5C038D
S205000E5D454A
S205000E5E0D81
S205000E5F008D
S205000E606329
S205000E610E7D
S205000E620585
S205000E630881
S205000E6493F5
S205000E650780
S205000E661D69
S205000E670085
S205000E683351
S205000E6986FD
S205000E6AA7DB
S205000E6B4140
S205000E6C8BF5
S205000E6DC6B9
S205000E6E1767
S205000E6F007D
S205000E70E399
S205000E719CDF
S205000E720674
S205000E73FE7B
S205000E7493E5
S205000E750D6A
S205000E760076
S205000E770075
S205000E786311
S205000E79442F
S205000E7A86EC
S205000E7B0968
S205000E7CB3BD
S205000E7D0C63
S205000E7E1757
S205000E7FC0AD
S205000E8093D9
S205000E81FC6F
S205000E820C5E
S205000E830168
S205000E843335
S205000E853730
S205000E86174F
S205000E87FC69
S205000E8893D1
S205000E898CD7
S205000E8A0C56
S205000E8B025F
S205000E8C63FD
S205000E8D1649
S205000E8E0757
S205000E8F0855
S205000E9063F9
S205000E918ECD
S205000E920D4D
S205000E930059
S205000E941345
S205000E958CCB
S205000E960D49
S205000E970055
S205000E981341
S205000E990C47
S205000E9AFC56
S205000E9BFF52
S205000E9C133D
S205000E9D85CA
S205000E9E0C42
S205000E9F004D
S205000EA0EF5D
S205000EA1004B
S205000EA2400A
S205000EA374D5
S205000EA4E365
S205000EA51A2D
S205000EA60C3A
S205000EA7FE47
S205000EA80341
S205000EA945FE
S205000EAA0D35
S205000EAB0041
S205000EAC231D
S205000EAD221D
S205000EAE013D
S205000EAF003D
S205000EB063D9
S205000EB1003B
S205000EB20535
S205000EB30435
S205000EB41325
S205000EB50A2D
S205000EB61D19
S205000EB70035
S205000EB83301
S205000EB98CA7
S205000EBAAD85
S205000EBB41F0
S205000EBCEF41
S205000EBD002F
S205000EBE80AE
S205000EBF72BB
S205000EC0B379
S205000EC10D1E
S205000EC24CDE
S205000EC30128
S205000EC40B1D
S205000EC545E2
S205000EC61A0C
S205000EC70025
S205000EC8E341
S205000EC91A09
S205000ECA051D
S205000ECBFE23
S205000ECC839D
S205000ECD27F8
S205000ECE41DD
S205000ECF001D
S205000ED063B9
S205000ED1809B
S205000ED20713
S205000ED30217
S205000ED41305
S205000ED58C8B
S205000ED6070F
S205000ED70015
S205000ED81301
S205000ED90C07
S205000EDAFC16
S205000EDBFF12
S205000EDC13FD
S205000EDD858A
S205000EDE0C02
S205000EDF000D
S205000EE0EF1D
S205000EE1000B
S205000EE240CA
S205000EE37099
S205000EE4E325
S205000EE51AED
S205000EE60CFA
S205000EE7FE07
S205000EE88381
S205000EE927DC
S205000EEA41C1
S205000EEB0001
S205000EECB34D
S205000EED8D72
S205000EEEB747
S205000EEF01FC
S205000EF033C9
S205000EF109F2
S205000EF2B941
S205000EF301F8
S205000EF403F5
S205000EF52ACD
S205000EF68175
S205000EF700F5
S205000EF86F85
S205000EF9F003
S205000EFADF13
S205000EFBDA17
S205000EFC13DD
S205000EFD06E9
S205000EFE00EE
S205000EFF00ED
S205000F00B338
S205000F010CDE
S205000F0217D2
S205000F03C028
S205000F049354
S205000F05FCEA
S205000F060CD9
S205000F0701E3
S205000F0833B0
S205000F0937AB
S205000F0A17CA
S205000F0BFCE4
S205000F0CB32C
S205000F0D0DD1
S205000F0ECC11
S205000F0F409C
S205000F109348
S205000F118C4E
S205000F120CCD
S205000F1302D6
S205000F14E3F4
S205000F150EC8
S205000F1607CE
S205000F17F6DE
S205000F1823B0
S205000F1922B0
S205000F1AB120
S205000F1B01CF
S205000F1C933C
S205000F1D0DC1
S205000F1E00CD
S205000F1F00CC
S205000F20E3E8
S205000F211AB0
S205000F2205C4
S205000F23F8D0
S205000F246F58
S205000F25F0D6
S205000F269F26
S205000F27FACA
S205000F2803C0
S205000F29259D
S205000F2A0AB7
S205000F2B00C0
S205000F2C932C
S205000F2D07B7
S205000F2E10AD
S205000F2F06B6
S205000F309328
S205000F3106B4
S205000F320CAD
S205000F3300B8
S205000F3413A4
S205000F3506B0
S205000F3610A5
S205000F3700B4
S205000F389320
S205000F3905AD
S205000F3AA011
S205000F3B00B0
S205000F3CEFC0
S205000F3DF0BE
S205000F3E1F8E
S205000F3F911B
S205000F401398
S205000F410AA0
S205000F424A5F
S205000F4300A8
S205000F443374
S205000F45099D
S205000F46A9FC
S205000F4700A4
S205000F486F34
S205000F49F0B2
S205000F4ADFC2
S205000F4BD5CB
S205000F4C138C
S205000F4D0C92
S205000F4E009D
S205000F4F009C
S205000F506F2C
S205000F51F0AA
S205000F52DFBA
S205000F53E0B8
S205000F540394
S205000F552571
S205000F560A8B
S205000F570094
S205000F589300
S205000F59078B
S205000F5A1081
S205000F5B068A
S205000F5C93FC
S205000F5D0688
S205000F5E0C81
S205000F5F008C
S205000F601378
S205000F610684
S205000F620089
S205000F630088
S205000F6493F4
S205000F650581
S205000F66A0E5
S205000F670084
S205000F68EF94
S205000F69F092
S205000F6A5F22
S205000F6B8EF2
S205000F6C136C
S205000F6D0A74
S205000F6E4A33
S205000F6F007C
S205000F703348
S205000F710971
S205000F72A9D0
S205000F730078
S205000F746F08
S205000F75F086
S205000F761F56
S205000F77D3A1
S205000F783340
S205000F79373B
S205000F7A175A
S205000F7BFC74
S205000F7C630C
S205000F7D0C62
S205000F7E0766
S205000F7F402C
S205000F800368
S205000F814525
S205000F820D5C
S205000F830068
S205000F8493D4
S205000F850C5A
S205000F860065
S205000F870262
S205000F8893D0
S205000F890D55
S205000F8A0061
S205000F8B0060
S205000F8C233C
S205000F8D223C
S205000F8E015C
S205000F8F005C
S205000F90E378
S205000F911248
S205000F920554
S205000F93F266
S205000F9493C4
S205000F950D49
S205000F960C49
S205000F970054
S205000F986FE4
S205000F99F062
S205000F9A9FB2
S205000F9BF55B
S205000F9C034C
S205000F9D2628
S205000F9E0A43
S205000F9F004C
S205000FA01338
S205000FA10A40
S205000FA24AFF
S205000FA30048
S205000FA42324
S205000FA52422
S205000FA64104
S205000FA70143
S205000FA863E0
S205000FA9043E
S205000FAA063B
S205000FAB1C24
S205000FACA39C
S205000FAD0F2F
S205000FAE013C
S205000FAF023A
S205000FB01328
S205000FB10A30
S205000FB2E158
S205000FB30335
S205000FB46FC8
S205000FB50036
S205000FB680B5
S205000FB70034
S205000FB81320
S205000FB98AA8
S205000FBA052C
S205000FBB0030
S205000FBC33FC
S205000FBD35F9
S205000FBE46E7
S205000FBFF636
S205000FC09398
S205000FC10525
S205000FC20A1F
S205000FC30028
S205000FC41314
S205000FC556D0
S205000FC646DF
S205000FC70024
S205000FC89390
S205000FC9071B
S205000FCA75AC
S205000FCB021E
S205000FCC63BC
S205000FCD44DA
S205000FCEA479
S205000FCF001C
S205000FD09388
S205000FD10713
S205000FD20514
S205000FD30018
S205000FD49384
S205000FD5878F
S205000FD6070E
S205000FD70311
S205000FD89380
S205000FD9FD15
S205000FDAF71A
S205000FDB0F01
S205000FDCAB64
S205000FDD8F7F
S205000FDEB558
S205000FDFFF0D
S205000FE0E328
S205000FE11CEE
S205000FE20603
S205000FE3FC0C
S205000FE463A4
S205000FE50600
S205000FE60CF9
S205000FE724E0
S205000FE89370
S205000FE907FB
S205000FEA1AE7
S205000FEB0000
S205000FEC23DC
S205000FED26D8
S205000FEEF10C
S205000FEF00FC
S205000FF033C8
S205000FF18674
S205000FF247B2
S205000FF341B7
S205000FF48B6C
S205000FF5C630
S205000FF617DE
S205000FF700F4
S205000FF8E310
S205000FF99C56
S205000FFA06EB
S205000FFBFEF2
S205000FFC638C
S205000FFD40AE
S205000FFE8667
S205000FFF23C9
S20500100013D7
S2050010010CDD
S20500100200E8
S20500100300E7
S20500100433B3
S2050010050DD8
S20500100617CD
S205001007C023
S20500100813CF
S2050010097D64
S20500100A0DD3
S20500100B01DE
S20500100C934B
S20500100D07D6
S20500100E0DCF
S20500100F02D9
S20500101033A7
S20500101137A2
S20500101217C1
S205001013FCDB
S20500101423B3
S20500101522B3
S205001016F1E3
S20500101700D3
S205001018636F
S20500101912BF
S20500101A07C9
S20500101B24AB
S20500101C636B
S20500101D0AC3
S20500101E0CC0
S20500101F3497
S2050010209337
S2050010210CBD
S2050010220CBC
S20500102300C7
S20500102403C3
S20500102525A0
S2050010264183
S20500102700C3
S205001028932F
S2050010298C35
S20500102AFCC4
S20500102BFFC0
S20500102CEFCF
S20500102D00BD
S20500102E803C
S20500102F5B60
S205001030E3D7
S2050010319A1F
S2050010320CAC
S205001033FEB9
S20500103403B3
S2050010352D88
S205001036C1F3
S20500103700B3
S205001038337F
S2050010390CA5
S20500103A4C64
S20500103B416E
S20500103C139B
S20500103D8528
S20500103E0D9F
S20500103F00AB
S205001040EFBB
S20500104100A9
S2050010424068
S2050010435A4D
S2050010443373
S2050010450A9B
S205001046ACF8
S20500104701A2
S2050010488B17
S2050010494D54
S20500104A1D83
S20500104B009F
S20500104CE3BB
S20500104D9805
S20500104E0D8F
S20500104FFE9D
S2050010506337
S2050010518E0B
S2050010520C8C
S2050010530097
S2050010541383
S2050010558C09
S2050010560C88
S2050010570093
S205001058038F
S205001059256C
S20500105A414F
S20500105B008F
S20500105C137B
S20500105D0C81
S20500105EFC90
S20500105FFF8C
S205001060EF9B
S2050010610089
S2050010624048
S205001063582F
S205001064E3A3
S2050010651A6B
S2050010660C78
S205001067FE85
S205001068334F
S2050010690A77
S20500106A9AE6
S20500106B017E
S20500106C334B
S20500106D0974
S20500106E4933
S20500106F017A
S2050010700377
S2050010712A4F
S20500107281F7
S2050010730077
S2050010746F07
S205001075F085
S2050010761F55
S205001077C3B0
S20500107883EF
S205001079264B
S20500107A0A66
S20500107B006F
S20500107C135B
S20500107D0A63
S20500107E4A22
S20500107F006B
S2050010802347
S2050010812445
S2050010824127
S2050010830166
S2050010846303
S20500108588DD
S205001086065E
S2050010872043
S205001088A3BF
S2050010890F52
S20500108A015F
S20500108B025D
S20500108C134B
S20500108D0D50
S20500108EE17B
S20500108F0358
S2050010906FEB
S2050010910059
S20500109280D8
S2050010930057
S2050010941343
S2050010950D48
S205001096064E
S2050010970053
S205001098B39F
S205001099B59C
S20500109A460A
S20500109BF659
S20500109C133B
S20500109D0647
S20500109E0D3F
S20500109F004B
S2050010A093B7
S2050010A1D673
S2050010A24602
S2050010A30047
S2050010A493B3
S2050010A587BE
S2050010A675CF
